:020000040801F1
:1000000040DC00206503010839CB0108BD8D0108E3
:10001000E5C901080D2E01085D4602080000000038
:10002000000000000000000000000000910602082F
:10003000E94901080000000013040108F514020852
:100040007F0301087F0301087F0301087F03010884
:100050007F0301087F030108E14F0108795001087F
:100060007F030108A15001087F0301087F030108F5
:100070007F0301087F0301087F0301087F03010854
:100080007F0301087F0301087F0301087F03010844
:100090007F0301087F0301087F030108D95001088D
:1000A0007F0301087F0301087F0301087F03010824
:1000B0007F0301087F0301087F030108658F0108A2
:1000C0007F0301087F0301087F0301087F03010804
:1000D0007F030108B52402082927020879290208AC
:1000E000095001087F0301087F0301087F0301080D
:1000F0007F0301087F0301087F0301087F030108D4
:100100007F0301087F0301087F0301087F030108C3
:10011000491F0208052202087F0301087F03010826
:100120007F0301087F0301087F0301087F030108A3
:1001300000F002F800F0C8F80AA090E8000C824431
:100140008344AAF10107DA4501D100F0BDF8AFF20E
:10015000090EBAE80F0013F0010F18BFFB1A43F0A5
:1001600001031847C45403000455030010F8013B71
:100170000A4413F0030408BF10F8014B1D1108BF17
:1001800010F8015B641E05D010F8016B641E01F8C5
:10019000016BF9D1002D15D010F8014B03F00C03C1
:1001A0000C2BA1EB04040ABF10F8013BA4EB831451
:1001B000A4EB032405F1010314F8016B5B1E01F8A5
:1001C000016BF9D5914238BF10F8013BD1D370478C
:1001D000103A24BF78C878C1FAD8520724BF30C873
:1001E00030C144BF04680C60704700000023002445
:1001F00000250026103A28BF78C1FBD8520728BF37
:1002000030C148BF0B6070476E2900F0258570290A
:1002100000F08C8666292BF03D8465292BF03A840A
:1002200067292BF037846129AFF3008003681B0A2C
:1002300028BF41F08001692900F08881642900F01D
:100240008581752900F082816F2900F01786782951
:1002500000F05886E92900F0AF85E42900F0AC856C
:10026000F52900F0A985EF2900F01486F82900F09F
:1002700057860368DB0928BF41F08001632900F03D
:100280003085732900F03585E32901F01E81F329BB
:1002900001F02381002070471FB52BF0F4FB9DE88F
:1002A000030000F07DFE01F09BF904000020002116
:1002B0002AF0B6FD401C6060002000212AF09AFD63
:1002C000E0601FBD10B510BD01F05CF91146FFF7ED
:1002D000E3FF29F07BFD01F053FA03B4FFF7F2FFCF
:1002E00003BC01F049F9000030BF704720BF7047E0
:1002F00040BF7047BFF36F8F7047BFF34F8F70479A
:10030000BFF35F8F704701DF7047EFF314807047D2
:1003100080F31488BFF36F8F7047EFF30980704745
:1003200080F309887047EFF30880704780F30888EE
:10033000704762B6704772B67047EFF3108070472F
:1003400071B6704761B67047EFF31380704780F362
:1003500011887047EFF31280704740BA704700BAB7
:10036000704700000948804709480047FEE7FEE75C
:10037000FEE7FEE7FEE7FEE7FEE7FEE7FEE7FEE755
:1003800004480549054A064B704700001D15020840
:100390003101010840CA002040DC002040D4002088
:1003A00040D4002072B6704762B67047EFF31080F9
:1003B00072B6704780F310887047B0FA80F07047CB
:1003C00090FAA0F0704730BF704720BF7047000020
:1003D000EFF3108072B6704780F3108870471D48A5
:1003E0004FF0FF010170002080F309881A480121B5
:1003F00001701A484FF08051016062B6FEE717485D
:100400004FF080510160704714484FF080510160F7
:10041000704772B6EFF3098028B1203880E8F00FFA
:100420000F490968086000B50E4880475DF804EB85
:100430000D480E490A78027009480D490A680260A1
:10044000106890E8F00F203080F309884EF0040E19
:1004500062B6704722ED00E05205002004ED00E096
:10046000580500204DE00108470500204805002000
:10047000600500201CB50C46064B7B446946009085
:10048000204600F004FC04460020694600F012FCFF
:1004900020461CBD370800007CB515461A460C00E6
:1004A000009001D02044401E074B7B4469460190D8
:1004B000284600F0ECFB05461CB10020694600F020
:1004C000F9FB28467CBD0000110800000FB41CB5E4
:1004D000084B06AA7B4469460090059800F0D7FBBC
:1004E00004460020694600F0E5FB20461CBC5DF890
:1004F00014FB0000DD07000070B505460C46012A1C
:1005000005D02868800600D5EA69002302E00123AF
:1005100005E05B1C934202D2E05C0028F9D1A86997
:10052000E618C01AA861286A18442862284600F014
:10053000FCFA04E0D5E9012114F8010B9047B4421C
:10054000F8D3284600F008FB70BD00002DE9F0410B
:100550000746002510687529394616A411D000F009
:100560000DFB002803DAC0F1000013A407E039688E
:100570008A0701D511A402E0490704D510A401257A
:1005800001E000F004FB00210A2307F1240607E044
:10059000B0FBF3F203FB1200303070541046491CDC
:1005A0000028F5D12B4622463846BDE8F04100F040
:1005B000F7BA0000000000002D0000002B00000032
:1005C000200000002DE9F05F044689464FF0000A44
:1005D000DFF878B1FB44C0F820A02046E1688847E6
:1005E000002875D0252806D0D4E901219047206A3B
:1005F000401C2062F1E700265F462046E1688847FC
:100600002028054608DB312D06D207EB050010F83F
:10061000200C08B10643F0E7B00701D526F0040628
:10062000C4F81CA00027C4F818A02A2D09D0284619
:1006300026F0C0FC38B304EB8708303DC8F81850EA
:1006400019E059F8041B204604EB87029161E16828
:100650008847012F054618D1E069002820DA26F0E6
:1006600020061DE0D8F8180000EB800005EB4000E4
:100670003038C8F818002046E1688847054626F05B
:1006800099FC0028EED1012F0AD02E2D08D120464A
:10069000E16888477F1C0546022F46F02006C4DB30
:1006A000A069002803DA404246F00106A061F00785
:1006B00001D026F010066C2D0BD0682D09D04C2DE2
:1006C00039D06A2D35D0742D35D07A2D33D016E03F
:1006D00038E0E1682F4620468847B842054609D1F0
:1006E0006C2F26D04FF48060E1680643204688478F
:1006F000054604E06C2F1AD04FF4807006430DB30A
:10070000A5F14100192802D8203546F400664A4672
:100710002946204626604E46FFF776FD80B1012827
:100720000BD0F61D26F0070000F1080955E7402020
:10073000E4E78020D8E70020D6E706F104094CE77B
:10074000284651E7206ABDE8F09F00006C4E030088
:1007500040EA010310B59B070FD1042A0DD310C83E
:1007600008C9121F9C42F8D020BA19BA884201D990
:10077000012010BD4FF0FF3010BD1AB1D30703D0D8
:10078000521C07E0002010BD10F8013B11F8014B8E
:100790001B1B07D110F8013B11F8014B1B1B01D1AA
:1007A000921EF1D1184610BD40EA0103024630B551
:1007B0009B0710D14FF0013400E008C208C91D1B8F
:1007C0009D4315EAC41FF8D013F0FF0102F8011B86
:1007D0000DD01B0AF8E711F8013B002B02F8013B92
:1007E00005D011F8013B002B02F8013BF3D130BDDD
:1007F00010B5431C02E010F8011B71B18107FAD15A
:100800004FF0013202C88C1A8C4314EAC211F9D09D
:10081000C01A0A0603D0C01E10BDC01A10BD0A04BB
:1008200001D0801E10BD0902FCD0401E10BD421E2A
:1008300012F8013F002BFBD111F8013B002B02F80D
:10084000013BF9D17047032A40F2308010F0030CCD
:1008500000F0158011F8013BBCF1020F624498BF13
:1008600011F801CB00F8013B38BF11F8013BA2F1B0
:10087000040298BF00F801CB38BF00F8013B11F02B
:10088000030300F02580083AC0F0088051F8043BCB
:10089000083A51F804CBA0E80810F5E7121D5CBF38
:1008A00051F8043B40F8043BAFF30080D20724BF6B
:1008B00011F8013B11F801CB48BF11F8012B24BFFF
:1008C00000F8013B00F801CB48BF00F8012B70474E
:1008D00010B5203AC0F00B80B1E81850203AA0E8DB
:1008E0001850B1E81850A0E81850BFF4F5AF5FEA0F
:1008F000027C24BFB1E81850A0E8185044BF18C9C2
:1009000018C0BDE810405FEA827C24BF51F8043B68
:1009100040F8043B08BF7047D20728BF31F8023BBC
:1009200048BF11F8012B28BF20F8023B48BF00F850
:10093000012B704702F0FF0343EA032242EA02421E
:1009400000F002B84FF000020429C0F0128010F04D
:10095000030C00F01B80CCF1040CBCF1020F18BF9B
:1009600000F8012BA8BF20F8022BA1EB0C0100F02E
:100970000DB85FEAC17C24BF00F8012B00F8012B01
:1009800048BF00F8012B70474FF0000200B5134636
:1009900094469646203922BFA0E80C50A0E80C509F
:1009A000B1F12001BFF4F7AF090728BFA0E80C5050
:1009B00048BF0CC05DF804EB890028BF40F8042B49
:1009C00008BF704748BF20F8022B11F0804F18BFB6
:1009D00000F8012B704700004FF0013C50F8042B49
:1009E00051F8043B9A4221D1A2EB0C03934313EA42
:1009F000CC1317D150F8042B51F8043B9A4215D16F
:100A0000A2EB0C03934313EACC130BD150F8042B45
:100A100051F8043B9A4209D1A2EB0C03934313EA29
:100A2000CC13DBD04FF00000704700BFD01A01BAE2
:100A3000B1FA81F101F0180122FA01F0CB40C1F1C5
:100A40002001DBB2C0B2C01A2CFA01F3D11A9143D3
:100A500011EAC311E6D17047704770477047000034
:100A60000048704710CA002070B5064600F078FABA
:100A7000056806F10B0020F00704B4429CBF00207B
:100A800070BD2B466A68BAB11068A04210D304F159
:100A9000080188423CBF5068586007D3516810195C
:100AA00041601168091B016058601460101D70BD21
:100AB00013465268002AE7D12146284600F05CFA26
:100AC0000028DED170BD70B50446051F00F048FA5D
:100AD0000068002C14BF446870BD002C18BFA542EC
:100AE00084BF20466468F8D801680A18AA4218BF73
:100AF000456003D12A680546114401602868411900
:100B0000A1421CBF6C6070BD6168696021680844C7
:100B1000286070BD10B500F027FA006810BD10B550
:100B2000044600F021FA046010BD70B504468569E2
:100B30000068C10601D5302600E02026C00708D095
:100B400070BDD4E9012130469047206A00F10100D0
:100B500020626D1EF5D570BD70B5044685690068CC
:100B6000C00708D170BDD4E9012120209047206A38
:100B700000F1010020626D1EF5D570BD09684A05BF
:100B800001D540B27047C905FCD500B2704709686D
:100B90004A0501D5C0B27047C905FCD580B270477F
:100BA0002DE9F0470D4604469246994600F1240887
:100BB0000168880604D5E06921F01001216000E099
:100BC0000120A84202DDA0EB050700E00027A16993
:100BD00007EB050202EB0900A1EB0000A061206811
:100BE000C00602D42046FFF7A0FF002608E0D4E9A3
:100BF00001211AF806009047206A401C761C2062EA
:100C00004E45F4DB2068C0060AD52046FFF78DFF6D
:100C100006E0D4E9012130209047206A401C206280
:100C2000381EA7F10107F4DC07E0D4E9012118F828
:100C300005009047206A401C2062281EA5F101058E
:100C4000F3DC2046FFF788FF2068000602D502206B
:100C5000BDE8F0870120FBE711680268006A5305D0
:100C600001D508700BE0D30501D5088007E0130615
:100C700003D5C217C1E9000201E052060860012055
:100C80007047000001694A1C02610878704700B58E
:100C90008FB0CDE901310021059105497944CDE9B5
:100CA000031011466846FFF78DFC0FB000BD000031
:100CB000E5FFFFFF0A6802F8010B0A607047D1E9FF
:100CC00000239A4202D2531C0B601070704710B57B
:100CD000436913B1AFF3008001E0FFF70DFC012081
:100CE00010BD126800F124010A7000224A7001222E
:100CF000EDE711684FF0FF32E9E700002DE9FF5FF3
:100D000004468A461546DFF8AC80F8440027D8E947
:100D100000103E46CDE9001011E03AF816106A4680
:100D200002A800F0DEFB411C07D02168890603D52C
:100D3000E269391891420ED8074406F1010620688D
:100D4000800602D5E069B84205DDAE42E5DB3AF83F
:100D500016000028E1D1A069C01BA0612046FFF762
:100D6000E4FED8E90010CDE90010002016E03AF8C2
:100D700018106A4602A800F0B4FB8146401C0BD054
:100D800000250DF1080B05E0D4E901211BF8050051
:100D900090476D1C4D45F7D308F10100B0428046E5
:100DA000E5DB206A384420622046FFF7D5FEBDE827
:100DB000FF9F0000D24703002DE9F0418046D21D7D
:100DC00022F007020026D2E90002F52914A512D06C
:100DD000002A06DA0023D0EB030063EB020211A520
:100DE00008E0D8F800108B0701D50FA502E04907ED
:100DF00001D50EA501261146002408F1240704E0C0
:100E000000F004F930323A55641C50EA0102F7D17F
:100E100033462A4621464046BDE8F041FFF7C0BEB2
:100E2000000000002D0000002B000000200000004A
:100E300030B4002100F124040CE002F0070505F1B4
:100E400030054FEAD20242EA4372655401F10101D2
:100E50004FEAD30352EA0305EFD10468002310A23E
:100E6000250708D504F020040C4304D0C4690123ED
:100E70000CA2641EC46130BCFFF792BE10B50446DC
:100E800021461068FFF783FE02462046BDE8104069
:100E90000023CDE7D21D22F00701D1E90023C7E7E7
:100EA0000000000030000000F0B40F4601680905A2
:100EB00002D5234C7C4402E0214C7C440E340021BA
:100EC00000F124050BE002F00F064FEA1212A65DB6
:100ED00042EA03724FEA13136E5401F1010152EA20
:100EE0000306F0D1224604680023240704D5702F9E
:100EF00005D009B111320223F0BCFFF751BE103208
:100F00000123F9E770B504460D4621461068FFF746
:100F10003EFE024629462046BDE870400023C3E756
:100F2000D21D22F00703D3E90023BDE7036812684E
:100F300043F0200303600823C3610023B4E70000EB
:100F40003046030010B500F0F1FABDE8104000F0A3
:100F5000E8BA00F003BB000000487047DCC900207D
:100F600000487047E4C9002000487047DCC90020F1
:100F7000704770477047704738B504460A460020EE
:100F80006946AFF30080002808BF38BD02460099CB
:100F9000204600F029FB012038BD012000F017BCDD
:100FA000F8B5AFF30080054600200C46102000BFC6
:100FB0000646A819A0420DD9324669460020AFF373
:100FC0000080070008BF00F002FC0098A04218BF94
:100FD0000546C419FFF7C4FF05600746F01D20F061
:100FE00007004619284600F00AF8B44208BFF8BDC9
:100FF000A21B31463868BDE8F84000F0F5BA002180
:101000000160C0E9011070471020704730B5B0F1A1
:101010000A024FEA900E71F100034EEA817EB0EBB6
:101020000E0061EB91014FEA101E4EEA017E10EBBB
:101030000E0041EB11114FEA102E4EEA016E10EB3B
:101040000E0041EB11214FEA104E4EEA014E10EB1B
:101050000E0041EB1141401841F100014FEAD00070
:1010600040EA41704FEAD10110EB80054FEA81045C
:1010700044EA907444EB01046D1944EB0404521BE0
:10108000A3414FF0000348BF0A3200D530BD401CD9
:1010900041F1000130BD70472DE9FF4F0C461E465F
:1010A0004FF0FF378BB0D2E90001DDF860800A9085
:1010B0008A46C1F30A5505B93D46002108464FF05E
:1010C0000000BAF1000F00F4400005DA00EB8000E8
:1010D0004FF4400101EA50004FEA9059B9F1010F75
:1010E00000DDB9460A9850EA4A000FD044F6105085
:1010F000A5F2FF3545432F14B8F1000F1FD07542FC
:10110000291E1FDD4846C9F100021CE0B8F1010F9D
:101110004FF0000001D1F24307E0302101E02154FB
:10112000401CB042FBDB30460022002121540B99C9
:10113000C1F80880C1E900200FB0BDE8F08FBD1BE9
:101140006D1CDDE74A4600DA694206A800F0A6FAFF
:1011500006AB07CB03AB07C350460A9900F0DCFB94
:101160008DE80700A0F500501F3800900398002D6F
:1011700009DD42F21F014A46084403A9039068466C
:1011800000F03BFE08E0A0F500504A461F3803A9D6
:101190000390684600F045FE8DE807000004000C4F
:1011A00003D04FF0FF30410800E01046B8F1000FC7
:1011B00003D00022009215461FE0751E06D4FFF7EB
:1011C00025FF02F1300262556D1EF8D5B3460122AB
:1011D000084302D000227F1C04E02078302801D18F
:1011E00000227F1E002A099786D01DE0112D07DA04
:1011F000FFF70CFF303262556D1C50EA0102F5D149
:1012000008430FD10021681E05E0235C625C635433
:10121000491C2254401E8142F7DBAB46A81B401EEE
:10122000099001E0009848B1002004F80B000B98E9
:10123000099AC0F80880C0E9002B7DE711264FF01D
:10124000000859E72DE9F04F88460446D21D22F0E8
:10125000070191B0D1E90001CDE90A0125F004FEB2
:1012600002460B98C00F01D02D2007E020688107AF
:1012700001D52B2002E0202101EAC000032A0990B9
:1012800001D0072A05DB03464146204600F0C6F997
:101290000EE12068800601D5E06900E00620B8F183
:1012A000650F814606D0B8F1660F18D0B8F1670F08
:1012B00072D132E00020B9F1110F009001DB11234F
:1012C00001E009F101030AAA01A90CA8FFF7E4FE55
:1012D000DDE90C70002609F10105834648E0012094
:1012E0004B4600904FF000470AAA01A90CA8FFF74F
:1012F000D3FEDDE90C050E990026AB4619B909F1BC
:10130000010100EB0105B9EB050003D4C0F1FF3684
:1013100009F10105A5EB09002BE0B9F1010F01DA94
:101320004FF001090020B9F1110F0090484601DD8E
:10133000112300E003460AAA01A90CA8FFF7ACFE9E
:10134000DDE90C704D4600268346206800070AD46C
:10135000AB4500DA5D4601A8012D04DD411911F805
:10136000011C302907D04F4502DA17F1040F04DAC7
:101370000120824610E06D1EEEE7002F02DCED1B1F
:101380003E4403E0781CA84200DD0546A7EB0600BA
:1013900000F1010A4FF000472068000703D4AA4576
:1013A00001DB4FF0FF3A0021B7F1004F0DF1430888
:1013B0008DF8431022D002202B23002F01DA7F4228
:1013C0002D230A22011EA0F1010000DC4FB197FB82
:1013D000F2F102FB117C0F460CF1300C08F801CD44
:1013E000F0E7A8F1010003702168090501D5452146
:1013F00000E06521A0F1010800F8011C09980FA97F
:10140000A1EB080707F1070700B1012000EB050178
:1014100001EBEA70A1693844A1EB0000A0F10100E2
:10142000A0612068C00602D42046FFF77EFB099821
:1014300030B1D4E901219047206A00F10100206217
:101440002068C00620D52046FFF76FFB1CE0002E69
:1014500004DBB34502DD01A8805D00E03020D4E963
:1014600001219047206A761C401CBAF1010A2062D3
:101470000AD100F0B5F8C0680168405CD4E90121E8
:101480009047206A401C2062281EA5F10105DEDC81
:1014900007E0D4E9012118F8010B9047206A401CAD
:1014A0002062381EA7F10107F3DC2046FFF754FB4A
:1014B000022011B041E610B5436913B1AFF30080CB
:1014C00001E0FFF71BFC012010BD126800F12401B0
:1014D00082840022C2840122EDE711684FF0FF32BE
:1014E000E9E770B505460C46164600F071F803684A
:1014F00093F80101012806D0FF2C0FD8185D68B1C0
:1015000001202C7070BDD3F80701324621460344F8
:101510002846BDE8704003F2071318474FF0FF302C
:1015200070BD002801D000F027B8704710B5002129
:1015300002A000F033F9012010BD000053494750CC
:1015400056464E3A20507572652076697274756100
:101550006C20666E2063616C6C65640010B500F0F1
:101560003FF9016919B100220261884701E08068F2
:10157000804700F00BF9000001491820ABBEFEE7E0
:10158000260002007546FFF7E7FCAE4605006946F7
:10159000534620F00700854618B020B5FEF7F0FE50
:1015A000BDE820404FF000064FF000074FF0000864
:1015B0004FF0000B21F00701AC46ACE8C009ACE8E5
:1015C000C009ACE8C009ACE8C0098D46704700000E
:1015D00010B500F005F8001D10BD00BF45980200D1
:1015E00000487047FCC90020034640688C4600282C
:1015F00018BF814284BF03464068F8D81868184471
:10160000884207D00CF1030020F00700001D411AAA
:10161000521A0146081D0A60FFF755BA2DE9F0413C
:1016200004461F4603260168072A01F4006004DB14
:1016300008B116A505E016A503E008B115A500E060
:1016400015A521F010002060A069C01EA0610FB197
:10165000401EA0612046FFF768FA4FB1D4E901218E
:1016600038469047206A401C2062C01C206206E079
:10167000206AFAE7D4E9012115F8010B9047761E9C
:10168000F8D22046FFF768FABDE8F0814E414E00DF
:101690006E616E00494E4600696E66002DE9F047A6
:1016A000814616468AB035487844D0E900238068E0
:1016B0000092CDE90130314878440C38D0E902235A
:1016C000006903924FF03702CDE9043041F69B30B8
:1016D000014491FBF2F0A0F1800502FB10141B3CC9
:1016E00002D56442012000E00020DFF890A080468F
:1016F0000027FA44AAF1C60A0DE0E00709D03246F5
:10170000684607EB47010AEB810100F08AFB8DE890
:10171000070064107F1C002CEFD1184F7F44B43FAA
:1017200017E0E80713D007EB04100DF1180A90E852
:101730000E00AAE80E00C068F04201D19819089086
:10174000324606A903A800F06CFB03AB07C36D107B
:10175000641C002DE5D132466946B8F1000F03A89C
:1017600002D000F04AFB01E000F05BFBC9E9000198
:10177000C9F808200AB0BDE8F0870000E83E030081
:101780000446AFF300802046FEF7A7FD002000F0DE
:1017900059F8FEF797FD0120FFF7EEFE70B50546FC
:1017A0000C460A2000E06D1C00F040F835B12878A6
:1017B0000028F8D102E0641C00F038F814B1207859
:1017C0000028F8D1BDE870400A2000F02FB810B50D
:1017D00000F040F8BDE81040FFF7A3BEFFF7D6FFCA
:1017E00070B500F02BF804680546A4B92020FFF777
:1017F0003BF9040011D00A4900202C60C4E9000123
:101800000849A1602073206160610749A06109B1A6
:1018100000F048F8E061204670BDFFF7B7FF000018
:1018200000000000DD1701080000000008B569464F
:101830008DF800000320ABBE08BD7047004870471C
:1018400018CA002010B500F04FF8BDE81040FFF7AF
:1018500068BE000010B5012805D0002103A0FFF7E5
:101860009DFF012010BD09A1F8E700005349475230
:10187000544D454D3A204F7574206F662068656160
:1018800070206D656D6F7279000000003A20486528
:101890006170206D656D6F727920636F7272757003
:1018A0007465640010B58820FFF7DEF8002801D0C9
:1018B0000021017010BD802902D808B1017809B15A
:1018C00000207047012100F8081B704718B100F193
:1018D0000802914201D0002070470021017070473A
:1018E00000487047E0C9002010B5002102A0FFF7B2
:1018F00055FF012010BD0000534947414252543A60
:101900002041626E6F726D616C207465726D696EDC
:101910006174696F6E0000005FEA400C08BF91F0CF
:10192000000F4FEA8C234FEAC12243EA51514FEA9C
:101930001C5018BF00F5F0404FEA300018BF41F0CE
:1019400000415FEA6C5C00F02980BCF1FF3F08BFFA
:1019500040F080407047130C06BF12044FF0100C8B
:101960004FF0000C130E04BF12020CF1080C130F01
:1019700004BF12010CF1040C930F04BF92000CF190
:10198000020CD30F04BF52000CF1010C11464FF0B2
:101990000002A0F11F00A0EB0C00704711F0004FF7
:1019A00008BF704731F000413FF4D5AF0B0C06BFC4
:1019B00009044FF0100C4FF0000C0B0E04BF09028D
:1019C0000CF1080C0B0F04BF09010CF1040C8B0F78
:1019D00004BF89000CF1020CCB0F04BF49000CF1CD
:1019E000010CCCF12003A0EB0C0022FA03F302FA65
:1019F0000CF241EA030100F10100704720F07F4C36
:101A000080EA030023F07F47ACEB070303F57C5328
:101A100000F0004003F1FF032DE980494FEA154B28
:101A200009B44FEA144325EA0B4E24EA03480FF2A7
:101A3000042606EB132749083E785FEA320203FBCF
:101A40000667C7F5000707FB06F64FEA54374FEA6B
:101A5000D64606F1020607FB066CCCF1005C4FEAA5
:101A60001C472CEA074C07FB06F40CFB06F504EBBD
:101A700015464FEA961634BF00204FF000404FEA5B
:101A8000D13706FB07FC4FEA1C4C0CFB0BF7D21BB3
:101A900003FB0CF761EB07010CFB0EF7B0EB074003
:101AA00072EB17420CFB08F734BFA2EB0742B2EB14
:101AB000074261EB17414FEA0C444FEA910706FBDE
:101AC00007FC4FEA1C4C0CFB0BF7B0EBC74072EB6A
:101AD000573203FB0CF734BFA2EBC742B2EBC7424D
:101AE00061EB57310CFB0EF7B0EBC70072EB57728E
:101AF0000CFB08F734BFA2EBC702B2EBC70261EBE5
:101B00005771039F4FEA816141EA921104EBCC04C3
:101B10004FEAD1374FEA826206FB07FC42EA901295
:101B20004FEA80604FEA1C4C0CFB0BF7D21B03FB07
:101B30000CF761EB07010CFB0EF7B0EB074072EB03
:101B400017420CFB08F734BFA2EB0742B2EB074287
:101B500061EB17414FEA8C554FEA910704EB9C2447
:101B600006FB07FC4FEA1C4C0CFB0BF7B0EBC74025
:101B700072EB573203FB0CF734BFA2EBC742B2EB58
:101B8000C74261EB57310CFB0EF7B0EBC70072EBAD
:101B900057720CFB08F734BFA2EBC702B2EBC702C7
:101BA00061EB577115EB4C254FEA816141EA9211C7
:101BB0004FEA82624FEAD13742EA901206FB07FCF5
:101BC00044F100044FEA80604FEA1C4C0CFB0BF719
:101BD000D21B03FB0CF761EB07010CFB0EF7B0EB1C
:101BE000074072EB17420CFB08F734BFA2EB074229
:101BF000B2EB074261EB174115EB1C154FEA81313F
:101C000041EA92414FEA823242EA90424FEA803002
:101C10004FEA0C7644F1000448EA03434EEA0B48CD
:101C20004FF0000EB2EB080C71EB030724BF6246C5
:101C300039464EEB0E0E4FF0000B00185241494151
:101C40004BEB0B0BB2EB080C71EB03077BF1000BBA
:101C500024BF624639464EEB0E0E4FF0000B0018C3
:101C6000524149414BEB0B0BB2EB080C71EB0307F4
:101C70007BF1000B24BF624639464EEB0E0E51EA53
:101C8000020718BF46F0010616EB0E7655F100026A
:101C900054F1000103D5BDE88901BDE80088BDE825
:101CA0008901BDE80048B619524141EB0101A3F199
:101CB0000103704780807F7E7D7C7B7A79787776A0
:101CC00076757473727171706F6E6E6D6C6C6B6A19
:101CD0006A696868676666656464636362616160B7
:101CE000605F5F5E5E5D5D5C5C5B5B5A5A59595834
:101CF000585757565655555554545353525252519E
:101D0000515050504F4F4F4E4E4D4D4D4C4C4C4BF3
:101D10004B4B4A4A4A49494948484847474747463A
:101D20004646454545444444444343434342424276
:101D300042414141002B26D4770021D01CB54FEA07
:101D4000370703B44FF010004FF010014FF00000C0
:101D50000FBCBDE810400BF1010BBBF1010F08BF38
:101D60005FEA170722BF12F1010211F101014FF0E2
:101D7000004143F1000300F0004043EA00007047D7
:101D8000F9D35708DAE746EA064613F1400F4FEA5F
:101D900016461FDD13F1200FDFBF16430A46002150
:101DA00020335B42C8D0C3F1200746EA064602FA58
:101DB00007F74FEA164646EA0706C3F1200722FA5C
:101DC00003F201FA07F721FA03F14FF0000342EAA8
:101DD0000702B1E746EA020646EA06464FEA164619
:101DE00046EA0106BCBF46EA0646360C4FF0000341
:101DF0004FF000024FF000019EE72DE9C0489346E6
:101E000030B491E8380007C831EA400C48BF34EAE2
:101E1000430C03D5FFF7F2FDFFF78CFFF0BCBDE8E4
:101E200000882DE9C048934630B491E8380007C8CF
:101E300010F0804F08BF13F0804F03D100F005F879
:101E4000FFF778FFF0BCBDE8008820F07F4780EA0C
:101E5000030023F07F4C07EB0C03A3F57C5300F049
:101E60000040A3F1FE0392F0000F00F0B38095F064
:101E7000000F00F077802DE901494FEA11404FEA49
:101E8000144621EA004800FB06FC24EA064708FB4A
:101E900006F607FB08F800FB07F718EB06484CEBC3
:101EA000164C4FEA124B18EB07484FEA15464CEB1D
:101EB000174022EA0B4E0BFB06FC25EA06470EFBF9
:101EC00006F607FB0EFE0BFB07F71EEB064E4CEB70
:101ED000164C4FF000061EEB074E4CEB174B18EB61
:101EE0000B0840F1000018EB0E0B58EB000840F116
:101EF00000008F1A4FF000013CBFC943661B14BF9E
:101F0000B5EB040C00213CBFC943F61B4FEA174454
:101F10004EEA8E0E27EA04454FEA1C4704FB07628F
:101F20002CEA074C05FB07F70CFB05F604FB0CFC41
:101F300016EB074642EB174216EB0C4642EB1C42EF
:101F40001BEB060658EB0202414146EA9E0601D50C
:101F5000BDE80189B619524141EB0101A3F101032A
:101F6000BDE801894FEA14454FEA114724EA0546C6
:101F700021EA074C05FB07F406FB07F70CFB06F10B
:101F800005FB0CFC11EB074144EB17444FEA1247E9
:101F900011EB0C4144EB1C4422EA074C05FB07F211
:101FA00006FB07F70CFB06F605FB0CFC16EB0746D9
:101FB00042EB174216EB0C4642EB1C456A1854F1F3
:101FC000000148BF7047B619524141EB0101A3F12E
:101FD0000103704795F0000F37D04FEA11424FEAE6
:101FE000144721EA024624EA074C02FB07F106FBEC
:101FF00007F70CFB06F402FB0CFC14EB074441EB67
:1020000017414FEA154714EB0C4441EB1C4125EAFC
:10201000074C02FB07F506FB07F70CFB06F602FB75
:102020000CFC16EB074645EB174516EB0C4645EB4B
:102030001C42121951F1000148BF7047B6195241B4
:1020400041EB0101A3F1010370474FEA14454FEA48
:10205000114724EA054621EA074C05FB07F106FB78
:1020600007F70CFB06F24FF0000605FB0CFC12EB29
:10207000074241EB174112EB0C4251EB1C4148BFA8
:102080007047921841EB0101A3F101037047000072
:102090002DE9F043C5B005460C4616461F46DDF84F
:1020A00030914FF0000802208DF8040020208DF8B8
:1020B0000500D5F80E00CDF80600688AADF80A00D4
:1020C000287D8DF80C0004208DF80D00174800EBDA
:1020D00084004088C0B28DF80E00144830F8240007
:1020E000ADF80F0000208DF811009DF80E00C21E03
:1020F00031460DF11200FEF7A6FB01A808F096F993
:102100008046B8F1000F0CD19DF80E00C21E0DF1F3
:1021100012013846FEF797FB9DF80E00C01E89F8A5
:102120000000404645B0BDE8F0830000681600207E
:102130002DE9F04107460C4615461E46B846601983
:10214000B0F5007F01D900BFFEE754B9B5F5007FB7
:1021500007D1314640460AF0FFF978B10020BDE8CA
:10216000F081074940460AF0F7F908B10020F6E788
:10217000034801192A463046FEF765FB0120EEE7C9
:102180008CB900202DE9F05F06460C4691469A4630
:1021900014B90020BDE8F09F4FF0000B750A33E042
:1021A000A6EB4527C7F50070A04202D2C7F500781C
:1021B00002E0A0464FF0010BBAF1000F0DD14B46E3
:1021C00042463946284600F025F8A0B91048008854
:1021D000401C0F4908800020DCE74B464246394648
:1021E0002846FFF7A5FF30B909480088401C084978
:1021F00008800020CEE7BBF1010F00D105E06D1C87
:102200004644A4EB0804C144CAE700BF0120C1E76B
:10221000A80C00202DE9F04106460C4615461F4645
:10222000B0466019B0F5007F01D900BFFEE754B990
:10223000B5F5007F07D1394640460AF077FAB0B1CC
:102240000020BDE8F0810B4940460AF085F908B14D
:102250000020F6E7074908192A463946FEF7F3FA3F
:10226000044940460AF062FA08B10020E9E701207B
:10227000E7E700008CB9002070477047704770474F
:102280007047000015480068401C14490860084663
:102290000068B0F57A7F20D30020086010480078ED
:1022A000401C0F490870084600783C2815DB0020C8
:1022B000087008464078401C4870084640783C2822
:1022C0000BDB0020487008468078401C8870084668
:1022D0008078182801DB00208870704728050020CE
:1022E000200500202DE9F047064689463046FEF7D6
:1022F0007FFAC5B2042D02DDFF20BDE8F08700277C
:102300004FF00108002419E0681E001B305C3028E3
:1023100004DB681E001B305C392801DDFE20ECE781
:10232000681E001B305C303800FB087087B208EB79
:10233000880040044FEA1048601CC4B2AC42E3DBA2
:10234000A9F800700020D8E710B501214FF0C05067
:102350000CF0D2FE01200CF065FD10BD0022024AF7
:102360000244116070470000006C004008B5012174
:102370004FF48A700CF0E0FEF020ADF8000003206E
:102380008DF8020010208DF803006946294803F0FB
:102390005FF93020ADF8000003208DF80200102016
:1023A0008DF803006946244803F052F94FF4C070D9
:1023B000ADF8000003208DF8020010208DF8030016
:1023C00069461E4803F044F90820ADF800000320D8
:1023D0008DF8020010208DF803006946184803F0BC
:1023E00037F94020ADF8000003208DF802001020DE
:1023F0008DF803006946124803F02AF90C20ADF865
:10240000000003208DF8020010208DF803006946BB
:102410000C4803F01DF92020ADF8000003208DF8D2
:10242000020010208DF803006946074803F010F9F8
:1024300008BD0000000801400010014000200140DC
:102440000014014000180140000C014008B50121B2
:102450004FF4F0700CF070FE4CF20370ADF8000019
:1024600018208DF8030003208DF8020069462048EB
:1024700003F0EEF84FF68070ADF8000069461D4895
:1024800003F0E6F84FF23F00ADF8000069461A4845
:1024900003F0DEF83F20ADF800006946174803F06E
:1024A000D7F84FF4C050ADF800006946104803F06B
:1024B000CFF83020ADF8000069460D4803F0C8F8A9
:1024C0004FF48060ADF8000069460C4803F0C0F896
:1024D0000320ADF800006946064803F0B9F88020F3
:1024E000ADF800006946024803F0B2F808BD0000EC
:1024F0000014014000180140001C01400020014070
:1025000008B5012118200CF017FE0320ADF80000DB
:1025100004208DF8030003208DF8020069460A4864
:1025200003F096F842F20800ADF8000004208DF8A0
:10253000030003208DF802006946044803F088F880
:1025400003F056F808BD0000000C014000100140E7
:1025500010B50421124803F056F94FF6FF7025F02C
:1025600035FA04210E4803F050F94FF6FF7025F0BC
:102570002DFA08210A4803F048F90A4825F026FAFE
:102580000821074803F03FF9064825F01FFA082103
:10259000034803F03AF940F6FF7025F017FA10BD32
:1025A00000180140FFFF2F0000B587B0012148054A
:1025B0000CF0A2FD012108200CF0BEFD012108460F
:1025C0000CF0BAFD4FF4E0600AF08CFB1F208DF890
:1025D000040000208DF8050003208DF8060001207E
:1025E0008DF8070001A80AF043FB0121022003F047
:1025F000B9F84FF44070ADF8180003208DF81A00B8
:102600001C208DF81B0006A9134803F021F80121B6
:10261000124806F0A7FD0020ADF80C004BF6FF7045
:10262000ADF80E004FF48060ADF812003220ADF826
:1026300010004FF48040ADF814000948029002A940
:10264000064806F0E1FD01224FF4C061034806F0A0
:10265000CFFD07B000BD0000000C01400054004059
:10266000400D030070B5002500240CF085FD4FF4EB
:1026700080300CF043FE0CF09FFE0646012E1ED16A
:1026800000200CF02FFE00200CF06AFEB0020CF0CF
:102690005BFE4FF4E01130040CF074FE01200CF0EE
:1026A0006BFE00BF39200CF0F7FD0028FAD00220A5
:1026B0000CF076FE00BF0CF00DFE0828FBD1FFF7F2
:1026C00055FE00F03DF8FFF71BFF02F027FD0AF072
:1026D00035FAFFF769FF00F097F900F0D7F900F03D
:1026E00007FA00F005F900F047F90AF071FA00F076
:1026F00087F800F081F8002406E009F0D7FDC5B2A4
:1027000005B903E0601CC4B2052CF6DB00BF06F07F
:10271000F4FE0EF033FF11F061FE27F0D7FAFFF759
:1027200017FF00F09FFCFFF70FFE0821034803F09E
:102730006AF84021014803F066F870BD00140140BA
:1027400008B5012114200CF0F7FC4FF4C050ADF88F
:10275000000004208DF8030003208DF80200694674
:10276000094802F075FF4FF40F50ADF80000042047
:102770008DF8030003208DF802006946034802F03B
:1027800067FF02F025FF08BD00080140001001406E
:1027900000B587B0012108020CF09EFC01200090DA
:1027A00000200190022002900020039004900590E8
:1027B0004FF08050069000200E4908604860886005
:1027C000C86008618861C86108624FF4805048623F
:1027D00000208862C8620863C1F834D0C1F838D0DC
:1027E000084602F0B7FD0121002002F099FD07B074
:1027F00000BD0000BCB8002010B5FFF7C9FF10BD38
:1028000008B5012109200CF097FC012188030CF088
:1028100073FC012108460CF05FFC4FF48050ADF8CA
:10282000000003208DF8020010208DF80300694697
:10283000134802F00DFF4FF42040ADF800000320D4
:102840008DF8020018208DF8030069460C4802F04C
:10285000FFFE4FF48040ADF8000003208DF8020029
:1028600048208DF803006946054802F0F1FE00207B
:1028700009F094FE012103480DF054FD08BD00004D
:10288000000C01400038004000B587B0012108026B
:102890000CF022FC03200090019002900020039095
:1028A0000120049000200590069004200F49086044
:1028B0000020486088601020C8600020086188619E
:1028C000C86108624FF48050486200208862C86284
:1028D0000863C1F834D0C1F838D0084602F03AFD98
:1028E0000121042002F01CFD07B000BDF8B8002053
:1028F00000B585B0012111200CF01EFC0121C80497
:102900000CF0FAFB4FF48060ADF8100018208DF841
:10291000130003208DF8120004A9154802F098FE58
:102920004FF40060ADF8100004208DF8130004A9E6
:102930000F4802F08DFE0F4810F026F94FF41650A4
:1029400000900020ADF80400ADF80600ADF80800D6
:102950000C20ADF80A006946064810F0BFF90121C5
:10296000044810F005F90FF07BFB05B000BD000036
:1029700000100140004C004000B585B0012131201D
:102980000CF0DAFB012108050CF0B6FB4FF4805087
:10299000ADF8100018208DF8130003208DF81200F8
:1029A00004A9164802F054FE0420ADF810008DF87A
:1029B000130004A9124802F04BFE4FF496600090F9
:1029C0004FF48050ADF804000020ADF806004FF43D
:1029D0008060ADF808000020ADF80C000C20ADF8C8
:1029E0000A006946074810F079F90121054810F0FE
:1029F000BFF80FF08FFC05B000BD000000100140D3
:102A0000001401400050004000B585B001210520B0
:102A10000CF092FB012188030CF08EFB4FF4007048
:102A2000ADF8100018208DF8130003208DF8120067
:102A300004A9144802F00CFE4FF48060ADF81000B9
:102A400004208DF8130004A90E4802F001FE4FF493
:102A5000E13000900020ADF80400ADF80600ADF8BC
:102A60000800ADF80C000C20ADF80A0069460648D5
:102A700010F034F90FF0AEFD0121034810F078F8A2
:102A800005B000BD000801400038014008B5012133
:102A900005200CF051FB012148040CF02DFB042013
:102AA000ADF8000018208DF8030003208DF8020017
:102AB00069460D4802F0CCFD0820ADF80000042066
:102AC0008DF803006946084802F0C2FD07F0D2FA0B
:102AD0000121064810F04CF80FF0ACFE40210348ED
:102AE00010F02EF808BD000000080140004400402E
:102AF00000B585B0012109200CF01EFB01218804DE
:102B00000CF0FAFA4FF48060ADF8100018208DF840
:102B1000130003208DF8120004A9164802F098FD56
:102B20004FF40060ADF8100004208DF8130004A9E4
:102B3000104802F08DFD4FF4E13000900020ADF818
:102B40000400ADF80600ADF80800ADF80C000C204C
:102B5000ADF80A006946084810F0C0F8012106489F
:102B600010F006F80FF08EFF402103480FF0E8FF49
:102B700005B000BD000C014000480040014601F0D6
:102B80000F00092801DD0020704701F0F0009028B7
:102B900001DD0020F8E70120F6E770B504460D4698
:102BA000607900F016F86871207900F012F8287149
:102BB000E07800F00EF8E870A07800F00AF8A8704D
:102BC000607800F006F86870207800F002F828704D
:102BD00070BD30B501460846CC1701EB14742411C2
:102BE000A1EB04140A46CD1701EB15752D1105EB69
:102BF000850504EB4504E3B2184630BD70B50146C7
:102C000000BF0020CBB2DD1703EB15752D11A3EB30
:102C10000515CCB2E61704EB1676361106EB8606E0
:102C200005EB46021044C1F30723DD1703EB1575CE
:102C30002D11A3EB0515C1F30724E61704EB167657
:102C4000361106EB860605EB460202EBC20303EBE8
:102C5000021300EB8300C1F30743DD1703EB157587
:102C60002D11A3EB0515C1F30744E61704EB167607
:102C7000361106EB860605EB460240F271235343FC
:102C800000EB03100B0EDD1703EB15752D11A3EBF5
:102C900005150C0EE61704EB1676361106EB8606C4
:102CA00005EB460243F60953534300EB831070BD16
:102CB0002DE9F043C1B005460C464FF002084FF035
:102CC00000090027002040902DB94FF4F9711EA093
:102CD00007F0AAF800E000BF2CB940F2F3111AA0E7
:102CE00007F0A2F800E000BF002728E0484601F006
:102CF000B1FE22782946484601F0E2FE64200BF03E
:102D0000A9F940AB0022694648460CF0EDFF0646A3
:102D100066B99DF8002169462846FDF794FD9DF8A7
:102D200000012070002041B0BDE8F0834FF4FA7339
:102D30000022114610460BF0CDF9781CC7B247456A
:102D4000D4DB0120EFE700002E2E5C555345525C8A
:102D500075436F735F4170705C6170705F646F7713
:102D60006E5C7372635C76616C76655C76616C76C2
:102D7000655F62696E6968692E6300002DE9F04342
:102D800006460F4691461C46A02096FBF0F100FB3C
:102D90001160C6B2362097FBF0F100FB1170C7B28C
:102DA0004FF000082EE006EB08000DF0E4FC38467A
:102DB0000DF06FFC00250AE0FF2028F00DF8FF2041
:102DC00028F00AF8FF2028F007F8681CC5B204EBC9
:102DD000D471B5EB610FEFDB002507E0FF2027F092
:102DE000FBFFFF2027F0F8FF681CC5B2204604EB6C
:102DF000D0714910A4EB4101A942EFDC08F10100B8
:102E000000F0FF08C845CEDBBDE8F08300BFFEE759
:102E10002DE9F84305460E4617469846DDF8209002
:102E200028460FF0C7FA7D200BF014F9B9F1010F15
:102E300014D101207D23002229460090042003F0B4
:102E400059FB044654B10F48C078032803DB2146E0
:102E50000DA011F08AF8FF20BDE8F883002043465A
:102E60003A4631460090042003F044FB04463CB14E
:102E70000448C078032803DB214607A011F075F849
:102E80002046E9E7ACEE01684174436F6D6420654C
:102E900072723D2564200000417452696768744174
:102EA0006E7377206572723D256420002DE9F84F1E
:102EB00006460F4690469946DDE90AAB002511E02B
:102EC00002F0B8FA4B46424639463046CDF800B0DB
:102ED000FFF79EFF044604B908E04FF4FA600BF0D8
:102EE000B9F86D1C0AF10100A842E9D800BF2046DC
:102EF000BDE8F88F10B586B0044605AA00211C482D
:102F000000680AF089FD64200BF0A4F819480FF05E
:102F100051FA01A94FF47A7003F09EFA05909DF8DA
:102F20001400F0B99DF805002C2803D100208DF87D
:102F300005000EE09DF806002C2803D100208DF836
:102F4000060006E00A4800680AF0E2FDF02006B03C
:102F500010BD04A901A8FFF7C5F90590BDF8100040
:102F60002070034800680AF0D3FD9DF81400EEE7D6
:102F70005C160020F515002010B502F0F7FC1228B1
:102F800002D100F005F810BD00F01AF8FBE70000D0
:102F900038B509480FF00EFA01204FF47A73002279
:102FA00006490090042003F0A5FA04460CB1012064
:102FB00038BD0020FCE70000FD1500200A160020A7
:102FC0000EB502AA00211A4800680AF025FD642007
:102FD0000BF040F8012000214FF4FA630A46CDE9D6
:102FE000001014491448FFF761FF02909DF8080093
:102FF00028B10F4800680AF08BFD01200EBD0120AA
:103000004FF4FA7300220D490090042003F072FA85
:1030100002909DF8080028B1054800680AF078FD84
:103020000120EBE7024800680AF072FD0020E5E7A6
:103030005C160020DF100020B710002035110020A2
:1030400010B502460B46002100BF04E052F82100F3
:10305000034C2060491C9942F8D30148006810BD18
:103060000030024010B5012140200CF035F800F08E
:1030700001F810BD0120014988607047003002400E
:103080002DE9FF43044600270FE014F80780042FC2
:1030900001D108F01F084046FFF770FD18B9012064
:1030A00004B0BDE8F083781CC7B2062FEDDB2078B2
:1030B000FFF78FFD3C2801DD0220F1E76078FFF784
:1030C00088FD3C2801DD0320EAE7A078FFF781FDB9
:1030D000172801DD0420E3E76079FFF77AFD8146D8
:1030E000217901F01F00FFF774FD0546E078FFF736
:1030F00070FD06460DB10C2D01DD0520D0E7002046
:103100008DF800001F208DF801001C208DF80200B2
:103110001F208DF803001E208DF804001F208DF85D
:1031200005001E208DF806001F208DF807008DF881
:1031300008001E208DF809001F208DF80A001E20AF
:103140008DF80B001F208DF80C00484606F040FA61
:1031500010B11D208DF802001EB11DF80500B0420F
:1031600001DA06209CE700209AE72DE9F0430646A5
:103170000F4690461C46A02096FBF0F100FB116024
:10318000C6B2362097FBF0F100FB1170C7B22046A3
:1031900004EBD0714910B4EB410105D004EBD071C0
:1031A0004910491CCCB203E0204604EBD0714C100E
:1031B000002519E070190DF0DEFA38460DF069FAB5
:1031C0004FF000090CE0002027F006FE002027F059
:1031D00003FE002027F000FE09F1010000F0FF09C6
:1031E000A145F0DB681CC5B24545E3DBBDE8F083D3
:1031F00008B5044824230E222921009091200DF0C7
:10320000F3FE08BD5AFC03087FB504460D460020B6
:10321000029003900090019020680290A088ADF881
:103220000C0028680090A888ADF8040006226946C2
:1032300002A8FDF78DFA10B9002004B070BD01207E
:10324000FBE700002DE9F04FA1B004460025AB4696
:10325000AA460020009000260027804681462CB90F
:1032600040F26A2149A006F0DFFD00E000BF02F055
:10327000E1F8677894F8038094F805A05246A11D00
:1032800001A8FDF7E0FA202F07D14A4931F838109C
:10329000494A52F82100804708E0B02F06D147493B
:1032A00011F81810444A52F82100804702F0C2F881
:1032B000012533E0681E424931F81090B9F1000F42
:1032C0002ADD284606F0C8FD02F0B4F800BF02F07F
:1032D000B1F86A4641F288313A4800680AF09CFB2E
:1032E0009DF800000028F2D100260FE002F0A2F8BD
:1032F000002001F0AFFB524601A9002001F0E0FBE5
:103300004FF4FA600AF0A6FE701CC6B2052EEDDB83
:103310002C4800680AF0FCFB681CC5B2062DC9DD0C
:103320002748B0F80C90B9F1000F2ADD072006F00D
:1033300093FD02F07FF800BF02F07CF86A4641F28C
:103340008831204800680AF067FB9DF800000028DB
:10335000F2D100260FE002F06DF8012001F07AFBB7
:10336000524601A9012001F0ABFB4FF4FA600AF0CC
:1033700071FE701CC6B2052EEDDB124800680AF023
:10338000C7FB002021B0BDE8F08F00002E2E5C5559
:103390005345525C75436F735F4170705C61707030
:1033A0005F646F776E5C7372635C6D657465722EBB
:1033B00063000000A000002084000020B401002071
:1033C000522401687C0000202DE9F84307460C4692
:1033D0004FF0000900251DE0C5F1030017F800803B
:1033E0006946404605F0A0FD06463246694620463D
:1033F0000CF0D7FD344409EB060000F0FF09032D63
:1034000003D1002004F8010B02E02E2004F8010B88
:10341000681CC5B2032DDFDD09F10300C0B2BDE8B1
:10342000F8832DE9F04303460C461546002041E0A1
:1034300014F80080B8F1000F10D100210BE04FF01C
:1034400000084FF0040909FB001903F8098001F195
:10345000010808F0FF010429F1DB27E0225C0021CC
:1034600021E002F08006802E02D14FF0F00C01E046
:103470004FF0000C4FEA42684FEA186202F08006F3
:10348000802E01D10F2700E000274CEA070801EB4E
:10349000800903F809804FEA42684FEA186201F197
:1034A000010808F0FF010429DBDB00BF00F101087F
:1034B00008F0FF00A842BBDBBDE8F08330B5014651
:1034C000002000220AE001F00103012B03D1950046
:1034D0000F24AC4020434910541CE2B2082AF2DB0E
:1034E00030BD00002DE9F04FA1B082460C461746D2
:1034F0001D464FF0000BD8462C2244490CA8FDF77E
:10350000E7F9802D00DD802517A950460BF0D6FB8A
:1035100083462A4639462046FDF795F9BBF1000F50
:1035200070D19DF8660001286AD101AE4FF0000904
:1035300094F81180424604F1120101A8FDF783F9C5
:1035400000BF07E0307833383070761C09F1010095
:1035500000F0FF09C145F5DBDDF805000C909DF892
:1035600004008DF83400DDF80A00CDF835009DF830
:1035700009008DF83900DDF80F00CDF83A009DF80C
:103580000E008DF83E000598CDF83F009DF8130021
:103590008DF84300DDF8190011909DF818008DF8A2
:1035A0004800BDF81D00ADF849009DF81F008DF8DA
:1035B0004B00BDF82000ADF84C009DF822008DF8BE
:1035C0004E00BDF82300ADF84F009DF825008DF8A2
:1035D0005100DDF82600CDF85200BDF82A00ADF804
:1035E00056009DF82C008DF85800BDF82D00ADF860
:1035F000590042460CA904F11200FDF724F900E03D
:1036000000BF00BF21B0BDE8F08F00007CC0030800
:103610002DE9F04F89B007460D469046994618228D
:103620005EA103A8FDF754F900BF0024002001901B
:10363000029000BF2FB94FF4CA715EA006F0F4FBF0
:1036400000E000BFB8F1000F05D140F2951159A07C
:1036500006F0EAFB00E000BFB9F1000F05D14FF41E
:10366000CB7154A006F0E0FB00E000BFC346D7F8E2
:103670000E000190788AADF80800387D8DF80A00B8
:10368000002415E001AA105DC21700EB127212119E
:10369000A0EB021201AB195DCB1701EB13731B11E9
:1036A00003EB830302EB430201AB1A55601CC4B267
:1036B000072CE7DB9DF804009DF8051001EBC10223
:1036C00002EB011100EB81019DF8060040F271222E
:1036D000504301EB00101FFA80FA0AF0FF008DF84A
:1036E00011004FEA1A208DF812006878C21700EB1B
:1036F00012721211A0EB0212C31700EB13731B110D
:1037000003EB830302EB4302D2B28DF81620E87973
:10371000C21700EB12721211A0EB0212C31700EBDA
:1037200013731B1103EB830302EB4302D2B28DF838
:1037300017202879C21700EB12721211A0EB0212A7
:10374000C31700EB13731B1103EB830302EB43025C
:10375000D2B28DF8182002208DF81F00002609240F
:1037600005E003A8005D3044C6B2601CC4B2152C4D
:10377000F7DB9DF810003044C6B29DF814003044C9
:10378000C6B28DF82160172203A95846FDF75BF8F1
:10379000172089F8000009B0BDE8F08F68111168A2
:1037A0005355010053601C101E0000000000000172
:1037B000010716002E2E5C555345525C75436F73FE
:1037C0005F4170705C6170705F646F776E5C737284
:1037D000635C76616C76655C76616C76655F626968
:1037E0006E6968692E6300002DE9F04F89B00646C6
:1037F0008A461746984618224FA103A8FDF768F895
:103800000025002400200190029000BF2EB940F254
:1038100041114FA006F008FB00E000BF2FB94FF4A4
:10382000A1714BA006F000FB00E000BFB8F1000F53
:1038300005D140F2431146A006F0F6FA00E000BFC1
:10384000BB46D6F80E000190708AADF80800307DB6
:103850008DF80A00002415E001AA105DC21700EBE4
:1038600012721211A0EB021201AB195DCB1701EB22
:1038700013731B1103EB830302EB430201AB1A55D5
:10388000601CC4B2072CE7DB9DF804009DF805100E
:1038900001EBC10202EB011100EB81019DF8060072
:1038A00040F27122504301EB00101FFA80F909F039
:1038B000FF008DF811004FEA19208DF812009AF8D8
:1038C000000009280BD0552805D099280BD12020BD
:1038D0008DF815000BE000208DF8150007E0602042
:1038E0008DF8150003E000208DF8150000BF00BF23
:1038F00001208DF81F000025092405E003A8005DC4
:103900002844C5B2601CC4B2152CF7DB9DF810002A
:103910002844C5B29DF814002844C5B28DF8215042
:10392000172203A95846FCF78EFF172088F80000DD
:1039300009B0BDE8F08F000068111168535501000F
:1039400053601C101E00000000000001010716005B
:103950002E2E5C555345525C75436F735F417070FA
:103960005C6170705F646F776E5C7372635C7661CC
:103970006C76655C76616C76655F62696E696869B4
:103980002E6300002DE9FF4705460E4617463FA16E
:1039900003C9CDE902014FF0000900240020009086
:1039A000019000BF2DB940F2CD113AA006F03CFACB
:1039B00000E000BF2EB94FF4E77136A006F034FAEC
:1039C00000E000BF2FB940F2CF1132A006F02CFA70
:1039D00000E000BFB246D5F80E000090688AADF84E
:1039E0000400287D8DF80600002416E01DF8040070
:1039F000C21700EB12721211A0EB02121DF8041094
:103A0000CB1701EB13731B1103EB830302EB430290
:103A1000D2B20DF80420601CC4B2072CE6DB9DF87E
:103A200000009DF8011001EBC10202EB011100EB57
:103A300081019DF8020040F27122504301EB001019
:103A40001FFA80F808F0FF008DF80A004FEA1820EE
:103A50008DF80B00012406E002A8005D484400F048
:103A6000FF09601CC4B2052CF6DB8DF80D9002989E
:103A7000CAF80000BDF80C00AAF804009DF80E007A
:103A80008AF8060007203870BDE8FF87105B341203
:103A9000000016002E2E5C555345525C75436F7323
:103AA0005F4170705C6170705F646F776E5C7372A1
:103AB000635C76616C76655C76616C76655F626985
:103AC0006E6968692E6300002DE9F04F8BB00746E0
:103AD0008B4690469946182263A105A8FCF7F8FE8C
:103AE00000BF00240020039000BF0190029000BF9F
:103AF00027B9FB2162A006F097F900E000BFB8F1FA
:103B0000000F04D1FC215EA006F08EF900E000BF9A
:103B1000B9F1000F04D1FD2159A006F085F900E0AC
:103B200000BFCDF81080D7F80E000190788AADF86C
:103B30000800387D8DF80A00002415E001AA105D08
:103B4000C21700EB12721211A0EB021201AB195D49
:103B5000CB1701EB13731B1103EB830302EB43023F
:103B600001AB1A55601CC4B2072CE7DB9DF80400BA
:103B70009DF8051001EBC10202EB011100EB810180
:103B80009DF8060040F27122504301EB00101FFA2D
:103B900080FA0AF0FF008DF819004FEA1A208DF81C
:103BA0001A00DBF800000390002415E003AA105D62
:103BB000C21700EB12721211A0EB021203AB195DD7
:103BC000CB1701EB13731B1103EB830302EB4302CF
:103BD00003AB1A55601CC4B2042CE7DB9DF80D0042
:103BE0009DF80E1001EBC10202EB011100EB810107
:103BF0009DF80F0040F27122504301EB00169DF832
:103C00000C000A2190FBF1F006EB860100EB410667
:103C1000F0B28DF82400300A8DF82500300C8DF8B4
:103C2000260000208DF827000025092405E005A8BE
:103C3000005D2844C5B2601CC4B2152CF7DB9DF8AA
:103C400018002844C5B29DF81C002844C5B28DF860
:103C50002950172205A90498FCF7F5FD172089F8CB
:103C600000000BB0BDE8F08F681111685300000030
:103C700053601C101E0000002BA107030107160053
:103C80002E2E5C555345525C75436F735F417070C7
:103C90005C6170705F646F776E5C7372635C766199
:103CA0006C76655C76616C76655F62696E69686981
:103CB0002E6300002DE9FF4704460D46164628A155
:103CC00003C9CDE902010027B84600200090019009
:103CD0002CB940F2011124A006F0A6F800E000BFC4
:103CE0002DB94FF4817120A006F09EF800E000BFCE
:103CF0002EB940F203111CA006F096F800E000BFB8
:103D0000A946D4F80E000090608AADF80400207D2A
:103D10008DF806009DF800008DF809009DF801005F
:103D20008DF80A000027B84608E002A810F808003D
:103D30003844C7B208F1010000F0FF08B8F1070FDE
:103D4000F3DB87F0A5078DF80F700298C9F8000023
:103D50000398C9F8040008203070BDE8FF87000010
:103D6000A0190C000000007B2E2E5C555345525CC0
:103D700075436F735F4170705C6170705F646F77E3
:103D80006E5C7372635C76616C76655C76616C7692
:103D9000655F656C736F6E69632E63002DE9FF4785
:103DA00004468A4615461E4627A103C9CDE90201ED
:103DB0000027B8460020009001902CB94FF41971EB
:103DC00023A006F031F800E000BF2DB940F26521D4
:103DD0001FA006F029F800E000BF2EB940F26621CE
:103DE0001BA006F021F800E000BFA946D4F80E00A1
:103DF0000090608AADF80400207D8DF806009DF8E3
:103E000000008DF809009DF801008DF80A000027D8
:103E1000B84608E002A810F808003844C7B208F114
:103E2000010000F0FF08B8F1070FF3DB87F0A507EA
:103E30008DF80F700298C9F800000398C9F80400C3
:103E400008203070BDE8FF87A3190C000000007B3C
:103E50002E2E5C555345525C75436F735F417070F5
:103E60005C6170705F646F776E5C7372635C7661C7
:103E70006C76655C76616C76655F656C736F6E6998
:103E8000632E63002DE9FF4704468A4615461E4609
:103E900027A103C9CDE902010027B8460020009000
:103EA00001902CB940F2952123A005F0BDFF00E060
:103EB00000BF2DB940F296211FA005F0B5FF00E02C
:103EC00000BF2EB940F297211BA005F0ADFF00E026
:103ED00000BFA946D4F80E000090608AADF8040037
:103EE000207D8DF806009DF800008DF809009DF8F2
:103EF00001008DF80A000027B84608E002A810F873
:103F000008003844C7B208F1010000F0FF08B8F11A
:103F1000070FF3DB87F0A5078DF80F700298C9F83B
:103F200000000398C9F8040008203070BDE8FF873E
:103F3000AF190C000000007B2E2E5C555345525CDF
:103F400075436F735F4170705C6170705F646F7711
:103F50006E5C7372635C76616C76655C76616C76C0
:103F6000655F656C736F6E69632E63002DE9F047C2
:103F700086B00446894615461E4632A103C9CDE9DE
:103F800004010027B84600200290039001902CB94C
:103F90004FF4B6712DA005F047FF00E000BF2DB92A
:103FA00040F26D1129A005F03FFF00E000BF2EB9DF
:103FB0004FF4B77125A005F037FF00E000BFAA4617
:103FC000D4F80E000290608AADF80C00207D8DF8C8
:103FD0000E009DF808008DF811009DF809008DF87D
:103FE0001200D9F8000001909DF805008DF813002B
:103FF0009DF806008DF814009DF807008DF8150057
:1040000000208DF816000027804608E004A810F86C
:1040100008003844C7B208F1010000F0FF08B8F109
:10402000070FF3DB87F0A5078DF817700498CAF81F
:1040300000000598CAF804000820307006B0BDE8FA
:10404000F0870000A4190C080000007B2E2E5C55A0
:104050005345525C75436F735F4170705C61707063
:104060005F646F776E5C7372635C76616C76655CBF
:1040700076616C76655F656C736F6E69632E630045
:104080002DE9FF4704460D4616462AA103C9CDE98E
:1040900002010027B8460020009001902CB94FF48F
:1040A000997126A005F0C0FE00E000BF2DB940F2D6
:1040B000331122A005F0B8FE00E000BF2EB94FF486
:1040C0009A711EA005F0B0FE00E000BFA946D4F82A
:1040D0000E000090608AADF80400207D8DF8060087
:1040E0009DF800008DF809009DF801008DF80A0088
:1040F00008208DF80B0000274FF0000808E002A808
:1041000010F808003844C7B208F1010000F0FF08B9
:10411000B8F1070FF3DB87F0A5078DF80F70029851
:10412000C9F800000398C9F8040008203070BDE801
:10413000FF870000B1190C080000007B2E2E5C5593
:104140005345525C75436F735F4170705C61707072
:104150005F646F776E5C7372635C76616C76655CCE
:1041600076616C76655F656C736F6E69632E630054
:104170002DE9FF4705460C4616461F4650A103C9C8
:10418000CDE902014FF00008C146002000900190E7
:104190002DB940F2E5114CA005F046FE00E000BF4D
:1041A0002EB94FF4F37148A005F03EFE00E000BFC9
:1041B0002FB940F2E71144A005F036FE00E000BF41
:1041C000B246D5F80E000090688AADF80400287D4C
:1041D0008DF806009DF800008DF809009DF801009B
:1041E0008DF80A006078C21700EB12721211A0EB72
:1041F00002120146C31700EB13731B1103EB830379
:1042000002EB4302D2B28DF80C209DF80C0014286A
:1042100002DA14208DF80C009DF80C001E2802DD37
:104220001E208DF80C009DF80C004006000E8DF845
:104230000C002079C21700EB12721211A0EB0212CF
:104240000146C31700EB13731B1103EB830302EB4F
:104250004302D2B28DF80E209DF80E000A2802DA31
:104260000A208DF80E009DF80E00132802DD1320A1
:104270008DF80E009DF80E004006000E8DF80E0021
:104280004FF00008C14609E002A810F809004044B8
:1042900000F0FF0809F1010000F0FF09B9F1070F74
:1042A000F2DB88F0A5088DF80F800298CAF80000AC
:1042B0000398CAF8040008203870BDE8FF870000A2
:1042C000B0190CA53CA5267B2E2E5C555345525C9F
:1042D00075436F735F4170705C6170705F646F777E
:1042E0006E5C7372635C76616C76655C76616C762D
:1042F000655F656C736F6E69632E63002DE9FF4720
:1043000004460D4616461F463CA103C9CDE90201ED
:104310004FF00008C1460020009001902CB940F2F7
:10432000A71138A005F080FD00E000BF2EB94FF4C2
:10433000D47134A005F078FD00E000BF2FB940F241
:10434000A91130A005F070FD00E000BFB246D4F81E
:104350000E000090608AADF80400207D8DF8060004
:104360009DF800008DF809009DF801008DF80A0005
:104370006878C21700EB12721211A0EB021201460C
:10438000C31700EB13731B1103EB830302EB430210
:10439000D2B28DF80D209DF80D000A2802DA0A200D
:1043A0008DF80D009DF80D001E2802DD1E208DF8F1
:1043B0000D009DF80D004006000E8DF80D004FF029
:1043C0000008C14609E002A810F80900404400F0C6
:1043D000FF0809F1010000F0FF09B9F1070FF2DB56
:1043E00088F0A5088DF80F800298CAF8000003989D
:1043F000CAF8040008203870BDE8FF87A6190C0031
:104400000032007B2E2E5C555345525C75436F7312
:104410005F4170705C6170705F646F776E5C737227
:10442000635C76616C76655C76616C76655F656C05
:10443000736F6E69632E63002DE9FF4705460C46D6
:1044400016461F4635A103C9CDE902014FF0000809
:10445000C1460020009001902DB94FF40B7131A09E
:1044600005F0E2FC00E000BF2EB940F22D212DA0A6
:1044700005F0DAFC00E000BF2FB940F22E2129A0A0
:1044800005F0D2FC00E000BFB246D5F80E00009067
:10449000688AADF80400287D8DF806009DF80000BC
:1044A0008DF809009DF801008DF80A002078992800
:1044B00003D180208DF80B0010E02078552803D11F
:1044C00002208DF80B0009E02078092803D1002094
:1044D0008DF80B0002E002208DF80B004FF0000871
:1044E000C14609E002A810F80900404400F0FF08A6
:1044F00009F1010000F0FF09B9F1070FF2DB88F0C4
:10450000A5088DF80F800298CAF800000398CAF831
:10451000040008203870BDE8FF870000A9190C00CE
:104520000000007B2E2E5C555345525C75436F7323
:104530005F4170705C6170705F646F776E5C737206
:10454000635C76616C76655C76616C76655F656CE4
:10455000736F6E69632E63002DE9FF4704460D46B5
:10456000164626A103C9CDE902010027B84600205E
:104570000090019024B9C32122A005F055FC00E071
:1045800000BF25B9C4211FA005F04EFC00E000BF0C
:1045900026B9C5211BA005F047FC00E000BFA946D5
:1045A000D4F80E000090608AADF80400207D8DF8EC
:1045B00006009DF800008DF809009DF801008DF8B7
:1045C0000A000027B84608E002A810F8080038449E
:1045D000C7B208F1010000F0FF08B8F1070FF3DBE4
:1045E00087F0A5078DF80F700298C9F800000398AE
:1045F000C9F8040008203070BDE8FF87A010000053
:10460000000000152E2E5C555345525C75436F73A8
:104610005F4170705C6170705F646F776E5C737225
:10462000635C76616C76655C76616C76655F6A6FFB
:10463000796F2E63000000002DE9FF4705460C4608
:1046400016461F464AA103C9CDE902014FF00008F2
:10465000C1460020009001902DB940F2351146A0CE
:1046600005F0E2FB00E000BF2EB94FF49B7142A0C1
:1046700005F0DAFB00E000BF2FB940F237113EA091
:1046800005F0D2FB00E000BFB246D5F80200009072
:10469000E888ADF80400287A8DF806009DF800003F
:1046A0008DF809009DF801008DF80A006078C217A6
:1046B00000EB12721211A0EB02120146C31700EBBD
:1046C00013731B1103EB830302EB4302D2B28DF889
:1046D0000D209DF80D00232802DA23208DF80D000F
:1046E0009DF80D00462802DD46208DF80D0020794A
:1046F000C21700EB12721211A0EB02120146C3178F
:1047000000EB13731B1103EB830302EB4302D2B2E2
:104710008DF80C209DF80C00052802DA05208DF894
:104720000C009DF80C000A2802DD0A208DF80C0010
:104730004FF00008C14609E002A810F80900404403
:1047400000F0FF0809F1010000F0FF09B9F1070FBF
:10475000F2DB88F0A5088DF80F800298CAF80000F7
:104760000398CAF8040008203870BDE8FF870000ED
:10477000A61000000A20007B2E2E5C555345525C8B
:1047800075436F735F4170705C6170705F646F77C9
:104790006E5C7372635C76616C76655C76616C7678
:1047A000655F6A6F796F2E63000000002DE9FF4797
:1047B00004460D4616461F4638A103C9CDE902013D
:1047C0004FF00008C14600200090019024B9F82164
:1047D00034A005F029FB00E000BF26B9F92131A083
:1047E00005F022FB00E000BF27B9FA212DA005F05B
:1047F0001BFB00E000BFB246D4F802000090E08846
:10480000ADF80400207A8DF806009DF800008DF8C0
:1048100009009DF801008DF80A006878C21700EBC6
:1048200012721211A0EB02120146C31700EB1373B0
:104830001B1103EB830302EB4302D2B28DF80E206F
:104840009DF80E00052802DA05208DF80E009DF86F
:104850000E001E2802DD1E208DF80E004FF000080D
:10486000C14609E002A810F80900404400F0FF0822
:1048700009F1010000F0FF09B9F1070FF2DB88F040
:10488000A5088DF80F800298CAF800000398CAF8AE
:10489000040008203870BDE8FF870000A910000060
:1048A0000000207B2E2E5C555345525C75436F7380
:1048B0005F4170705C6170705F646F776E5C737283
:1048C000635C76616C76655C76616C76655F6A6F59
:1048D000796F2E63000000002DE9FF4704460D4666
:1048E00016461F4631A103C9CDE902014FF0000869
:1048F000C1460020009001902CB940F279112DA002
:1049000005F092FA00E000BF2EB94FF4BD7129A066
:1049100005F08AFA00E000BF2FB940F27B1125A014
:1049200005F082FA00E000BFB246D4F80200009021
:10493000E088ADF80400207A8DF806009DF80000AC
:104940008DF809009DF801008DF80A002878992853
:1049500003D102208DF80B0009E02878552803D1F7
:1049600004208DF80B0002E000208DF80B004FF0C2
:104970000008C14609E002A810F80900404400F010
:10498000FF0809F1010000F0FF09B9F1070FF2DBA0
:1049900088F0A5088DF80F800298CAF800000398E7
:1049A000CAF8040008203870BDE8FF87A310000093
:1049B0000000007B2E2E5C555345525C75436F738F
:1049C0005F4170705C6170705F646F776E5C737272
:1049D000635C76616C76655C76616C76655F6A6F48
:1049E000796F2E63000000007047000010B5202191
:1049F000074800F008FFF021064800F004FF1021EE
:104A0000034800F000FF00200349087010BD0000BB
:104A10000010014000080140790000202DE9F0411C
:104A200005460E46174615B1012D0CD105E0394655
:104A300030460DF013FE044607E0394630460DF0CF
:104A40005FFB044601E000BFFEE700BF2046BDE873
:104A5000F081000070B50446002514B1012C08D186
:104A600003E00B480AF045FA0FE00A480AF041FA61
:104A70000BE0012508480078012805DB2346C22207
:104A8000064907A00FF058FA00BF00BF284670BDC6
:104A9000E43202680411026800000020F8D3030821
:104AA0004552524F523A2573202564206465666151
:104AB000756C7420646576203D2025640D0A000025
:104AC00070B506460C46154616B1012E0AD104E013
:104AD000294620460DF0E0FD06E0294620460DF06F
:104AE0002DFB01E000BFFEE700BF70BD2DE9F04FD8
:104AF0008DB004460F4600BF0026002500200B9015
:104B000083460A9081468246804609900890079025
:104B10000690D7F81D000990042109A80DF099F915
:104B200000BF09E009A8805DC6F10301C900884003
:104B300040EA0B0B701CC6B2042EF3DB387F13283F
:104B400006D0142810D0152818D016282FD122E00E
:104B50000A20BBFBF0FB584604F0AEF98346C4F8CC
:104B600014B02C20207623E000BF584604F0A4F9AE
:104B70008346C4F814B02C20207619E00BEB8B0090
:104B80004FEA400B584604F097F98346C4F814B036
:104B90002C2020760CE064200BFB00FB584604F030
:104BA0008BF98346C4F814B02C20207600E000BFB7
:104BB00000BFF87E1D30C5B2785D0B907819407843
:104BC000FB2839D17819D0F803000990042109A8ED
:104BD0000DF03FF9002609E009A8805DC6F1030148
:104BE000C900884040EA0808701CC6B2042EF3DBF6
:104BF0007819807810B1012819D10CE008EB8800F1
:104C00004FEA4008404604F057F98046C4F8058052
:104C1000082060720CE0642008FB00F8404604F0B5
:104C20004BF98046C4F805800820607200E000BFA0
:104C300000BFE81DC5B257E07819D0F8020009900E
:104C4000042109A80DF005F9002609E009A8805DF6
:104C5000C6F10301C900884040EA0808701CC6B2CA
:104C6000042EF3DB78194078052806D0062811D0E9
:104C700007281BD00E2833D122E008EB88004FEA2A
:104C80004008404604F018F98046C4F80580052025
:104C9000607226E00A20B8FBF0F8404604F00CF9F8
:104CA0008046C4F80580082060721AE000BF4046C4
:104CB00004F002F98046C4F805800820607210E014
:104CC0004FF48E7008FB00F00A21B0FBF1F840466B
:104CD00004F0F2F88046C4F805800820607200E015
:104CE00000BF00BFA81DC5B205F11000C5B27819FC
:104CF000D0F802000990042109A80DF0AAF80026B6
:104D000009E009A8805DC6F10301C900884040EAB6
:104D10000909701CC6B2042EF3DB781940783938C3
:104D200006284AD2DFE800F0030D1A26303D00BF06
:104D3000484604F0C1F88146C4F80F903220E07470
:104D40003CE009EB89004FEA4009484604F0B4F81A
:104D50008146C4F80F903220E0742FE0642009FBF4
:104D600000F9484604F0A8F88146C4F80F903220B4
:104D7000E07423E000BF484604F09EF88146C4F882
:104D80000F903520E07419E009EB89004FEA4009E3
:104D9000484604F091F88146C4F80F903520E0743D
:104DA0000CE0642009FB00F9484604F085F88146D0
:104DB000C4F80F903520E07400E000BF00BFA81DCC
:104DC000C5B27819D0F802000990042109A80DF0A5
:104DD00040F8002609E009A8805DC6F10301C9007A
:104DE000884040EA0A0A701CC6B2042EF3DB781928
:104DF00040782A38052840D2DFE800F003101C264E
:104E000033000AEB8A004FEA400A504604F054F897
:104E10008246C4F80AA01420A0732FE064200AFB85
:104E200000FA504604F048F88246C4F80AA014205C
:104E3000A07323E000BF504604F03EF88246C4F859
:104E40000AA01720A07319E00AEB8A004FEA400A73
:104E5000504604F031F88246C4F80AA01720A07327
:104E60000CE064200AFB00FA504604F025F8824664
:104E7000C4F80AA01720A07300E000BF00BFA81D5F
:104E8000C5B278194088ADF82400022109A80CF0B9
:104E9000E0FF9DF825009DF8241040EA01200890CD
:104EA000BDF82000C0B203F0ACFF089004F1190077
:104EB000BDF82010618300206076281DC5B27819E6
:104EC0004088ADF82400022109A80CF0C2FF9DF82B
:104ED00025009DF8241040EA01200790BDF81C0031
:104EE000C0B203F08EFF079004F11C00BDF81C1047
:104EF000A4F81D10002020772D1D05F10800C5B273
:104F000078194088ADF82400022109A80CF0A1FF0F
:104F10000C909DF824009DF8251040EA0120069091
:104F2000BDF8180000EB4000C004000C0690BDF86E
:104F30001800C0B203F065FF0690BDF81800A4F891
:104F40001F0000200490059000BF1C4801680491D8
:104F50008088ADF8140020212820015500200390FE
:104F60000BE004AA0399505C03F03FFF04F1220117
:104F7000039A88540398401C039003980628F0DB9A
:104F80000F48007A072815DB0E480078012811DB4E
:104F900094F822002321095D2422125DCDE900212D
:104FA00002902520035D2620025D2720015D06A0DA
:104FB0000EF0C2FF00200DB0BDE8F08F20050020EC
:104FC000ACEE016800000020323025782D25782DC8
:104FD00025782025783A25783A25780D0A000000B2
:104FE00010B507F069FF01210648006808F084F851
:104FF000012000F08DF8322009F02CF807F06EFF48
:1050000010BD0000A005002010B5FBF7E1F9044633
:1050100014480078401C134908702046FBF7DCF95F
:105020004FF4005000F0CEF8012805D001210E48C1
:10503000006808F061F80AE001210C48006808F0F7
:105040005BF80B48007810B103200A4908704FF450
:10505000605000F05DF8322008F0FCFF07F03EFFE2
:1050600010BD0000450500209C050020A005002083
:10507000040000200300002010B507F01DFF0121EF
:105080000648006808F038F8022000F041F83220A5
:1050900008F0E0FF07F022FF10BD0000A00500208F
:1050A00010B5FBF795F9044609480078401C0849FB
:1050B00008702046FBF790F9012006490870082087
:1050C00000F026F8322008F0C5FF07F007FF10BDFA
:1050D000450500205B00006810B5FBF779F9044630
:1050E00009480078401C084908702046FBF774F90D
:1050F00001210648006807F0FFFF4FF4707000F0D0
:1051000007F807F0EBFE10BD450500209C050020C8
:105110000149086070470000140401401CB50121DA
:1051200008460AF009F80B21002000F071FA0C2162
:10513000002000F06DFA0621022000F069FA072134
:10514000022000F065FA0821022000F061FA09212E
:10515000022000F05DFA0021012000F059FA01213F
:10516000084600F055FA0321022000F051FA0D2103
:10517000022000F04DFA41F6CB30FFF7C9FF0020C6
:105180008DF8040010208DF8050041F6CB3000901A
:1051900001208DF80600684600F028F84FF4005012
:1051A000FFF7B6FF00208DF8040010208DF80500F1
:1051B0004002009001208DF80600684600F016F8C5
:1051C0001CBD0000014600200022074B1B6803EABB
:1051D0000102054B14331B680B4202D00AB10120B7
:1051E00000E0002070470000000401400021234936
:1051F0008279002A3AD00A46126803689A430B461D
:105200001A600A1D126803689A430B1D1A6002791E
:1052100011440A6803681A430A60184A083212687F
:1052200003689A43154B08331A601A1D1268036805
:105230009A43124B0C331A604279102A0ED11A1F6E
:10524000126803681A430D4B08331A601A1D12685E
:1052500003681A43094B0C331A600DE00749427981
:1052600011440A6803681A430A6005E00279114490
:105270000A6803689A430A6070470000000401400E
:10528000F0B58FB005460C46002700200E902DB9D2
:1052900040F2C62115A004F0C7FD00E000BF2CB904
:1052A00040F2C72111A004F0BFFD00E000BF384666
:1052B000FFF7D0FB227829463846FFF701FC0EABFA
:1052C000002201A938460AF0D6FD06465EB99DF8CF
:1052D000382001A92846FBF7B6FA9DF8380020705F
:1052E00000200FB0F0BD0120FBE700002E2E5C5522
:1052F0005345525C75436F735F4170705C617070B1
:105300005F646F776E5C7372635C76616C76655C0C
:1053100076616C76655F656C736F6E69632E630092
:1053200051B14FF0204252F8202042F001024FF0DC
:10533000204343F8202009E04FF0204252F820207B
:10534000034B1A404FF0204343F8202070470000E1
:10535000FEFF0F00D0E901121143C2681143026938
:1053600011434269114382691143C2691143026AC0
:105370001143426A1143826A1143C26A1143026BAC
:1053800011434FF02043026843F822108168082936
:1053900008D11A46016852F8211041F04001026814
:1053A00043F82210416B0968426B526841EA0211CE
:1053B000426B926841EA0221426BD26841EA0241A3
:1053C000426B126941EA0251426B526941EA026141
:1053D000426B926911430268521C4FF0204343F81C
:1053E0002210C16AB1F5804F1AD1816B0968826BB6
:1053F000526841EA0211826B926841EA0221826B93
:10540000126941EA0251826B526941EA0261826B80
:1054100092691143026803EB8202C2F8041108E0AA
:105420006FF070414FF02043026803EB8202C2F834
:105430000411704710B5FAF7CBFF04460A4800780C
:1054400000EB4000094901EB80004068401C064920
:10545000097801EB4101054A02EB810148602046D1
:10546000FAF7BAFF10BD000047050020BCB50020C8
:105470002DE9F04F8FB005460E4617469946002499
:10548000A046A34600200E90302102A8FBF77CFA2C
:10549000A2460020019000902EB94FF49B7140A0CD
:1054A00004F0C2FC00E000BF2FB940F237113CA06D
:1054B00004F0BAFC00E000BF302206F1080102A8A7
:1054C000FBF7C1F9BDF808A0BDF808000190002461
:1054D0001BE002A830F81400A0F57F41FF3912D07C
:1054E00002A830F81400504502DA02A830F814A0DF
:1054F00002A830F814100198814204DD02A830F8A7
:10550000140001900094601CC4B2182CE1DB00244C
:1055100037E002A931F81410C8B2FDF75AFB0E901B
:1055200002A931F814100812FDF753FB8346BBF1B2
:10553000180F02DC0E983C2803DB01200FB0BDE8F9
:10554000F08FAA4505DBDDF80080012089F8000016
:1055500019E002A830F81400A84207DC02A9601C78
:1055600031F81000A84201DDA0460CE0172C06D14E
:1055700002A830F81400A84201DCA04603E0601C39
:10558000C4B2182CC5DB00BF00BFB8F1180F02DA97
:1055900087F8008001E00320D0E70020CEE700007C
:1055A0002E2E5C555345525C75436F735F4170708E
:1055B0005C6170705F666C6173686D656D5C737261
:1055C000635C53746F72654D616E6167652E630035
:1055D00010B5002007F0E0FC0449086008460068A8
:1055E00008B900BFFEE7002010BD00009C050020A8
:1055F00010B5002007F0D0FC044908600846006898
:1056000008B900BFFEE7002010BD0000A005002083
:1056100030B500228B071C0F0F2303FA04F20B4B4B
:105620008C1053F824309343084C8D1044F82530E7
:1056300023468C1053F824308C07240F00FA04F40E
:105640002343024C8D1044F8253030BD0800014042
:105650002DE9F04102460025002600200023002409
:10566000002791F803C00CF00F0591F803C01CF05F
:10567000100F03D091F802C04CEA0505B1F800C044
:105680001CF0FF0F31D0146800202BE04FF0010C0C
:105690000CFA00F3B1F800C00CEA03069E4220D1D8
:1056A00083004FF00F0C0CFA03F7BC4305FA03FC20
:1056B0004CEA040491F803C0BCF1280F06D14FF066
:1056C000010C0CFA00FCC2F814C00AE091F803C007
:1056D000BCF1480F05D14FF0010C0CFA00FCC2F8E8
:1056E00010C0401C0828D1D31460B1F800C0BCF130
:1056F000FF0F34DD546800202EE000F1080C4FF05D
:10570000010808FA0CF3B1F800C00CEA03069E4247
:1057100021D183004FF00F0C0CFA03F7BC4305FABC
:1057200003FC4CEA040491F803C0BCF1280F05D136
:1057300000F1080C08FA0CF8C2F8148091F803C0C4
:10574000BCF1480F07D100F1080C4FF0010808FA2E
:105750000CF8C2F81080401C0828CED35460BDE875
:10576000F0810000F0B50A46002300240021002546
:1057700000F00046B6F1004F02D11D4EF16901E084
:105780001B4E7168C0F3034583B200F44016B6F5B2
:10579000401F08D121F07061154E766826F07066C2
:1057A000134F7E6012E000F48016B6F5801F06D11C
:1057B000032606FA05F4A14341F0706106E0460DA8
:1057C000360103FA06F6B14341F0706122B1460D8D
:1057D000360103FA06F6314300F00046B6F1004FF9
:1057E00002D1034EF16101E0014E7160F0BD000095
:1057F000000001400246002093680B4201D00120C6
:1058000000E000207047416170470161704700006F
:1058100010B504463F2C04D925210EA004F004FB4A
:1058200000E000BF162C06D01E2C07D01F2C08D07D
:10583000212C0CD108E01248006810BD1148006806
:10584000FBE711480068F8E710480068F5E700201A
:10585000F3E700002E2E5C555345525C75436F7381
:105860005F4170705C6170705F646F776E5C7372C3
:10587000635C756172743070726F2E63000000009B
:10588000A4010020A8010020AC010020B0010020EC
:1058900030B54B790A2493FBF4F33033C3704B7962
:1058A00093FBF4F504FB153330330371042A0CD158
:1058B0000B7993FBF4F3303383710B7993FBF4F59D
:1058C00004FB15333033C3714EE0032A19D10B7931
:1058D0000A2493FBF4F3303383710B7993FBF4F5D3
:1058E00004FB15333033C371CB7893FBF4F33033BF
:1058F0004372CB7893FBF4F504FB1533303383729A
:1059000032E0022A30D10B790A2493FBF4F33033CE
:1059100083710B7993FBF4F504FB15333033C371BA
:10592000CB7893FBF4F330334372CB7893FBF4F5ED
:1059300004FB1533303383728B7893FBF4F33033ED
:1059400003738B7893FBF4F504FB15333033437307
:105950004B7893FBF4F3303383734B7893FBF4F57C
:1059600004FB15333033C37330BD000070B5FAF754
:105970002FFD0546034804782846FAF72DFD2046FA
:1059800070BD0000FCBC002038B56A460021054807
:10599000006807F0F9FE0446012003490870E0B2F0
:1059A00038BD0000900C0020E504002038B56A46A0
:1059B00040F2DC510448006807F0E6FE044601208E
:1059C00002490870E0B238BD900C0020E5040020C8
:1059D00010B500200EF034FE10BD2DE9F843054649
:1059E0000C461646607803F000FA8046A07803F073
:1059F000FCF908EB002087B26A46314638460AF0C7
:105A0000C9FC9DF8001036F811100812FDF7E1F8F6
:105A1000A0709DF8001036F81110C8B2FDF7D9F843
:105A2000607060790A2190FBF1F03030E8706079A5
:105A300090FBF1F201FB120030302871207990FBCD
:105A4000F1F03030A871207990FBF1F201FB1200E7
:105A50003030E871E07890FBF1F030306872E07837
:105A600090FBF1F201FB12003030A872A07890FB9D
:105A7000F1F030302873A07890FBF1F201FB1200B6
:105A800030306873607890FBF1F03030A873607844
:105A900090FBF1F201FB12003030E873BDE8F883AF
:105AA0002DE9F0438FB005460C461646142247A157
:105AB0000AA8FAF70DFF182249A104A8FAF708FF6F
:105AC0004FF00008002003900190607803F08DF9FA
:105AD0008146A07803F089F909EB002087B201AB79
